:020000040800F2
:1000000068080020A90100084739000807350008E2
:1000100045390008991400088F3F000800000000CF
:100020000000000000000000000000003B3A000853
:10003000AF18000800000000393A0008453E0008EB
:10004000C3010008C3010008C3010008C301000880
:10005000C3010008C3010008C3010008C301000870
:10006000C3010008C3010008C3010008C301000860
:10007000C3010008C3010008C3010008C301000850
:10008000C3010008C3010008C3010008C301000840
:10009000C3010008C3010008C3010008B51D000822
:1000A000C3010008C3010008C3010008C301000820
:1000B000C3010008C3010008AD3E0008C3010008E9
:1000C000C3010008C3010008C3010008C301000800
:1000D000C3010008C3010008C3010008C3010008F0
:1000E000C3010008C3010008C301000800F002F8C2
:1000F00000F04AF80AA090E8000C82448344AAF178
:100100000107DA4501D100F03FF8AFF2090EBAE875
:100110000F0013F0010F18BFFB1A43F0010318473B
:100120008C470000AC470000103A24BF78C878C163
:10013000FAD8520724BF30C830C144BF04680C60ED
:10014000704700000023002400250026103A28BF35
:1001500078C1FBD8520728BF30C148BF0B60704739
:10016000662904F04283642900F06680002070470D
:100170001FB500F0E9FB04000020002104F014F892
:10018000E0601FBD10B510BD00F0DEFC1146FFF7AA
:10019000EFFF03F05FFF00F0FCFC03B4FFF7F2FF9A
:1001A00003BC00F03FFD00000948804709480047B4
:1001B000FEE7FEE7FEE7FEE7FEE7FEE7FEE7FEE717
:1001C000FEE7FEE704480549054A064B7047000074
:1001D000A93E0008ED000008680200206808002021
:1001E0006804002068040020B2F120030AD5C2F19F
:1001F000200320FA02F001FA03F321FA02F140EAA7
:100200000300704721FA03F04FF00001704700002F
:100210000FB41CB5074B06AA7B44694600900598AD
:1002200000F079FB0020694600F088FB1CBC5DF8FB
:1002300014FB0000210700002DE9F04106460024D0
:1002400010687529314616A510D0AFF3008000283C
:1002500002DA404213A507E031688A0701D512A5EA
:1002600002E0490704D511A5012401E0AFF30080A5
:1002700000210A2206F1240709E0B0FBF2FCB0FBE2
:10028000F2F302FB1C00303078541846491C002859
:10029000F3D123462A463046BDE8F04100F0CEB8FF
:1002A000000000002D0000002B00000020000000D6
:1002B0002DE9F05F894604464FF0000ADFF824B1CB
:1002C000FB44C0F820A02046E168884700287DD084
:1002D000252806D0D4E901219047206A401C2062DD
:1002E000F1E700255F462046E1688847202806465A
:1002F00007DB312E05D2B81910F8200C08B10543E0
:10030000F1E7A80701D525F00405C4F81CA00027D3
:10031000C4F818A02A2E09D0304603F093FE38B353
:1003200004EB8708303EC8F8186019E059F8041B40
:10033000204604EB87029161E1688847012F064659
:1003400018D1E069002820DA25F020051DE0D8F852
:10035000180000EB800006EB40003038C8F81800A9
:100360002046E1688847064603F06CFE0028EED17F
:10037000012F0AD02E2E08D12046E16888477F1C25
:100380000646022F45F02005C4DBA069002803DAE9
:10039000404245F00105A061E80701D025F01005B5
:1003A000A6B1A6F14100192802D8203645F400650F
:1003B0004A463146204625604D46FFF7D1FE60B1E2
:1003C000012807D0ED1D25F0070000E007E000F14F
:1003D000080978E705F1040975E730467AE7206AED
:1003E000BDE8F09F424500004FF0000200B5134603
:1003F00094469646203922BFA0E80C50A0E80C5045
:10040000B1F12001BFF4F7AF090728BFA0E80C50F5
:1004100048BF0CC05DF804EB890028BF40F8042BEE
:1004200008BF704748BF20F8022B11F0804F18BF5B
:1004300000F8012B70477047704770472DE9F0476F
:100440000D4699469246044600F124080168880644
:1004500004D5E06921F01001216000E00120A842EC
:1004600001DD471B00E00027A1697A1902EB0900B2
:10047000081AA0612078C00602D42046AFF300809D
:10048000002608E0D4E901211AF806009047206A06
:10049000401C761C20624E45F4DB2078C0060AD54D
:1004A0002046AFF3008006E0D4E9012130209047D8
:1004B000206A401C2062381EA7F10107F4DC07E027
:1004C000D4E9012118F805009047206A401C2062F9
:1004D000281EA5F10105F3DC2046AFF3008020784B
:1004E000000602D50220BDE8F0870120FBE7704737
:1004F0002DE9FF4F0C461E464FF0FF378BB0D2E977
:100500000001DDF860800A908A46C1F30A5505B9FA
:100510003D46002108464FF00000BAF1000F00F4FC
:10052000400005DA00EB80004FF4400101EA500082
:100530004FEA9059B9F1010F00DDB9460A9850EA27
:100540004A000ED044F61050A5F2FF3545432F1453
:10055000B8F1000F1ED07542291E1EDDC9F1000240
:100560001CE0B8F1010F4FF0000001D0302103E092
:10057000F24305E02154401CB042FBDB3046002230
:10058000002121540B99C1F80880C1E900200FB067
:10059000BDE8F08FBD1B6D1CDEE74A4600DA6942FC
:1005A00006A800F05BFA06AB93E8070003AB83E80C
:1005B000070050460A9900F03CFB8DE80700A0F5C3
:1005C00000501F3800900398002D0ADD42F21F01F1
:1005D0004A460844002303A90390684600F0A5FD9D
:1005E00009E0A0F500504A461F38002303A90390F4
:1005F000684600F0AFFD8DE807000004000C03D052
:100600004FF0FF30410800E01046B8F1000F03D072
:100610000022009215461EE0751E05D400F098F9E0
:10062000303262556D1EF9D5B3460122084302D01F
:1006300000227F1C04E02078302801D100227F1E98
:10064000002A099784D01DE0112D07DA00F080F907
:10065000303262556D1C50EA0102F5D1084302D0D8
:100660000098C8B10EE00021681E05E0235C625CC2
:1006700063542254401E491C8142F7DBAB46A81B41
:10068000401E0990002004F80B000B98099AC0F84E
:100690000880C0E9002B7AE711264FF0000857E7E1
:1006A0002DE9F04F88460446D21D22F0070191B093
:1006B000D1E90001CDE90A0103F0A0FC02460B9844
:1006C000C00F01D02D2007E02068810701D52B2025
:1006D00002E0202101EAC000032A099001D0072A84
:1006E00005DB03464146204600F078F90BE120780F
:1006F000800601D5E06900E00620B8F1650F81466B
:1007000006D0B8F1660F18D0B8F1670F70D131E09C
:100710000020B9F1110F009001DB112301E009F174
:1007200001030AAA01A90CA8FFF7E2FEDDE90C709B
:10073000002609F10105834647E001204B46009061
:100740004FF000470AAA01A90CA8FFF7D1FEDDE986
:100750000DB00C995D46002610B909F101000D1885
:10076000B9EB050003D4C0F1FF3609F10105A5EB93
:1007700009002BE0B9F1010F01DA4FF00109002067
:10078000B9F1110F0090484601DD112300E0034646
:100790000AAA01A90CA8FFF7ABFEDDE90C704D46D3
:1007A00000268346207800070AD4AB4500DA5D4670
:1007B00001A8012D04DD411911F8011C302907D0D1
:1007C0004F4502DA17F1040F04DA012082460FE0E8
:1007D0006D1EEEE7002F02DCED1B3E4403E0781CAB
:1007E000A84200DD7D1CB81B00F1010A4FF0004754
:1007F0002078000703D4AA4501DB4FF0FF3A00211F
:10080000B7F1004F0DF143088DF8431024D00220BA
:100810002B23002F01DA7F422D230A21021EA0F193
:10082000010000DC5FB197FBF1FC97FBF1F201FBEB
:100830001C7C17460CF1300C08F801CDEEE7A8F14E
:10084000010003702188090501D5452100E06521DB
:10085000A0F1010800F8011C09980FA9A1EB0807F5
:10086000FF1D00B10120411901EBEA70A169384474
:10087000081A401EA0612078C00602D42046AFF3BB
:100880000080099828B1D4E901219047206A401CD2
:1008900020622078C00622D52046AFF300801EE0FB
:1008A000002E04DBB34502DD01A8805D00E03020AE
:1008B000D4E901219047206A401C2062761CAAF1ED
:1008C00001005FEA000A0AD100F03EF8C068016842
:1008D000405CD4E901219047206A401C2062281E18
:1008E000A5F10105DCDC07E0D4E9012118F8010BD2
:1008F0009047206A401C2062381EA7F10107F3DCF4
:100900002046AFF30080032011B041E601694A1C84
:1009100002610878704700B58FB0CDE90131002140
:10092000059105497944CDE9031011466846FFF762
:10093000BFFC0FB000BD0000E5FFFFFF0A6802F832
:10094000010B0A6070470000004870472802002031
:1009500030B5B0F10A024FEA900E71F100034EEA91
:10096000817EB0EB0E0061EB91014FEA101E4EEA62
:10097000017E10EB0E0041EB11114FEA102E4EEAF2
:10098000016E10EB0E0041EB11214FEA104E4EEAC2
:10099000014E10EB0E0041EB1141401841F10001F6
:1009A0004FEAD00040EA41704FEAD10110EB8005D8
:1009B0004FEA810444EA907444EB01046D1944EB5E
:1009C0000404521BA3414FF0000348BF0A3200D574
:1009D00030BD401C41F1000130BD00002DE9F04167
:1009E0001F46044603260168072A01F4006004DB61
:1009F00008B116A505E016A503E008B115A500E0AD
:100A000015A521F010002060A069C01EA0610FB1E3
:100A1000401EA0612046AFF300804FB1D4E9012110
:100A200038469047206A401C2062C01C206206E0C5
:100A3000206AFAE7D4E9012115F8010B9047761EE8
:100A4000F8D22046AFF30080BDE8F0814E414E0061
:100A50006E616E00494E4600696E66002DE9F047F2
:100A6000814616468AB0354878440DC88DE80D0099
:100A700032487844801C03AC0DC884E80D0041F670
:100A80009B300844372190FBF1F290FBF1F5A5F182
:100A9000800501FB12041B3C02D56442012000E0EA
:100AA0000020DFF898A080460027FA44AAF1BE0A89
:100AB0000EE0E0070AD03246684607EB4701012303
:100AC0000AEB810100F046FB8DE8070064107F1CF3
:100AD000002CEED1194F7F44AE3F19E0E80715D046
:100AE00007EB04100DF1180A90E80E008AE80E00DA
:100AF000C068F04201D1981908903246012306A936
:100B000003A800F027FB03AB83E807006D10641C0B
:100B1000002DE3D14FF0010332466946B8F1000FD2
:100B200003A802D000F001FB01E000F013FBC9E9CB
:100B30000001C9F808200AB0BDE8F087283E00008F
:100B400000487047080200207546FFF7F9FFAE46DF
:100B500005006946534620F00700854618B020B5C9
:100B6000FFF730FBBDE820404FF000064FF00007D4
:100B70004FF000084FF0000B21F00701AC46ACE845
:100B8000C009ACE8C009ACE8C009ACE8C0098D46B2
:100B9000704710B50446AFF300802046BDE8104012
:100BA000FFF7FBBA4FF0013C50F8042B51F8043B1F
:100BB0009A4221D1A2EB0C03934313EACC1317D131
:100BC00050F8042B51F8043B9A4215D1A2EB0C03C8
:100BD000934313EACC130BD150F8042B51F8043B88
:100BE0009A4209D1A2EB0C03934313EACC13DBD056
:100BF0004FF00000704700BFD01A01BAB1FA81F17E
:100C000001F0180122FA01F0CB40C1F12001DBB262
:100C1000C0B2C01A2CFA01F3D11A914311EAC311E0
:100C2000E6D1704701491820ABBEFEE7260002005E
:100C300070475FEA400C08BF91F0000F4FEA8C2329
:100C40004FEAC12243EA51514FEA1C5018BF00F548
:100C5000F0404FEA300018BF41F000415FEA6C5CA1
:100C600000F02980BCF1FF3F08BF40F08040704792
:100C7000130C06BF12044FF0100C4FF0000C130EB3
:100C800004BF12020CF1080C130F04BF12010CF187
:100C9000040C930F04BF92000CF1020CD30F04BF9D
:100CA00052000CF1010C11464FF00002A0F11F00A0
:100CB000A0EB0C00704711F0004F08BF704731F0F7
:100CC00000413FF4D5AF0B0C06BF09044FF0100CE8
:100CD0004FF0000C0B0E04BF09020CF1080C0B0FB7
:100CE00004BF09010CF1040C8B0F04BF89000CF147
:100CF000020CCB0F04BF49000CF1010CCCF1200316
:100D0000A0EB0C0022FA03F302FA0CF241EA030111
:100D100000F10100704720F07F4C80EA030023F0CF
:100D20007F47ACEB070303F57C5300F0004003F171
:100D3000FF032DE980494FEA154B09B44FEA1443EC
:100D400025EA0B4E24EA03480FF2042606EB13278C
:100D500049083E785FEA320203FB0667C7F50007E1
:100D600007FB06F64FEA54374FEAD64606F102066D
:100D700007FB066CCCF1005C4FEA1C472CEA074CE1
:100D800007FB06F40CFB06F504EB15464FEA961636
:100D900034BF00204FF000404FEAD13706FB07FC7C
:100DA0004FEA1C4C0CFB0BF7D21B03FB0CF761EB5F
:100DB00007010CFB0EF7B0EB074072EB17420CFB80
:100DC00008F734BFA2EB0742B2EB074261EB1741D1
:100DD0004FEA0C444FEA910706FB07FC4FEA1C4C14
:100DE0000CFB0BF7B0EBC74072EB573203FB0CF771
:100DF00034BFA2EBC742B2EBC74261EB57310CFBE9
:100E00000EF7B0EBC70072EB57720CFB08F734BF5C
:100E1000A2EBC702B2EBC70261EB5771039F4FEA27
:100E2000816141EA921104EBCC044FEAD1374FEAD9
:100E3000826206FB07FC42EA90124FEA80604FEAAA
:100E40001C4C0CFB0BF7D21B03FB0CF761EB0701EF
:100E50000CFB0EF7B0EB074072EB17420CFB08F7E8
:100E600034BFA2EB0742B2EB074261EB17414FEAF6
:100E70008C554FEA910704EB9C2406FB07FC4FEAD4
:100E80001C4C0CFB0BF7B0EBC74072EB573203FB6B
:100E90000CF734BFA2EBC742B2EBC74261EB57314C
:100EA0000CFB0EF7B0EBC70072EB57720CFB08F7A8
:100EB00034BFA2EBC702B2EBC70261EB577115EB6F
:100EC0004C254FEA816141EA92114FEA82624FEA72
:100ED000D13742EA901206FB07FC44F100044FEAC6
:100EE00080604FEA1C4C0CFB0BF7D21B03FB0CF78A
:100EF00061EB07010CFB0EF7B0EB074072EB1742FA
:100F00000CFB08F734BFA2EB0742B2EB074261EBE0
:100F1000174115EB1C154FEA813141EA92414FEA26
:100F2000823242EA90424FEA80304FEA0C7644F136
:100F3000000448EA03434EEA0B484FF0000EB2EBC0
:100F4000080C71EB030724BF624639464EEB0E0EC8
:100F50004FF0000B0018524149414BEB0B0BB2EB29
:100F6000080C71EB03077BF1000B24BF6246394686
:100F70004EEB0E0E4FF0000B0018524149414BEB67
:100F80000B0BB2EB080C71EB03077BF1000B24BFDA
:100F9000624639464EEB0E0E51EA020718BF46F084
:100FA000010616EB0E7655F1000254F1000103D54F
:100FB000BDE88901BDE80088BDE88901BDE80048B9
:100FC000B619524141EB0101A3F101037047808042
:100FD0007F7E7D7C7B7A7978777676757473727193
:100FE00071706F6E6E6D6C6C6B6A6A69686867664B
:100FF00066656464636362616160605F5F5E5E5DDD
:101000005D5C5C5B5B5A5A59595858575756565550
:1010100055555454535352525251515050504F4FB2
:101020004F4E4E4D4D4D4C4C4C4B4B4B4A4A4A4902
:101030004949484848474747474646464545454445
:101040004444444343434342424242414141002BD2
:101050009C4630D477002BD01CB54FEA370703B439
:101060004FF010004FF01001BAF1000F06D0BCF1A4
:10107000000FDCBF40F0080040F008014FF0000016
:101080000FBCBDE810400BF1010BBBF1010F08BF15
:101090005FEA170722BF12F1010211F101014FF0BF
:1010A000004143F1000300F0004043EA00007047B4
:1010B000F9D35708D0E746EA064613F1400F4FEA46
:1010C00016461FDD13F1200FDFBF16430A4600212D
:1010D00020335B42BED0C3F1200746EA064602FA3F
:1010E00007F74FEA164646EA0706C3F1200722FA39
:1010F00003F201FA07F721FA03F14FF0000342EA85
:101100000702A7E746EA020646EA06464FEA1646FF
:1011100046EA0106BCBF46EA0646360C4FF000031D
:101120004FF000024FF0000194E72DE9804C9A4601
:10113000934670B491E8380007C831EA400C48BFC4
:1011400034EA430C03D5FFF7E6FDFFF780FFF0BC60
:10115000BDE8008C2DE9804C9A46934670B491E826
:10116000380007C810F0804F08BF13F0804F03D13C
:1011700000F005F8FFF76BFFF0BCBDE8008C20F035
:101180007F4780EA030023F07F4C07EB0C03A3F5B5
:101190007C5300F00040A3F1FE0392F0000F00F03A
:1011A000B38095F0000F00F077802DE901494FEAF8
:1011B00011404FEA144621EA004800FB06FC24EAED
:1011C000064708FB06F607FB08F800FB07F718EBD5
:1011D00006484CEB164C4FEA124B18EB07484FEA07
:1011E00015464CEB174022EA0B4E0BFB06FC25EA9A
:1011F00006470EFB06F607FB0EFE0BFB07F71EEB82
:10120000064E4CEB164C4FF000061EEB074E4CEB17
:10121000174B18EB0B0840F1000018EB0E0B58EBC6
:10122000000840F100008F1A4FF000013CBFC94395
:10123000661B14BFB5EB040C00213CBFC943F61B71
:101240004FEA17444EEA8E0E27EA04454FEA1C4740
:1012500004FB07622CEA074C05FB07F70CFB05F6BD
:1012600004FB0CFC16EB074642EB174216EB0C4650
:1012700042EB1C421BEB060658EB0202414146EAD8
:101280009E0601D5BDE80189B619524141EB010125
:10129000A3F10103BDE801894FEA14454FEA114764
:1012A00024EA054621EA074C05FB07F406FB07F78D
:1012B0000CFB06F105FB0CFC11EB074144EB17445A
:1012C0004FEA124711EB0C4144EB1C4422EA074C55
:1012D00005FB07F206FB07F70CFB06F605FB0CFC0B
:1012E00016EB074642EB174216EB0C4642EB1C4549
:1012F0006A1854F1000148BF7047B619524141EBDA
:101300000101A3F10103704795F0000F37D04FEAB8
:1013100011424FEA144721EA024624EA074C02FB35
:1013200007F106FB07F70CFB06F402FB0CFC14EBC1
:10133000074441EB17414FEA154714EB0C4441EBCE
:101340001C4125EA074C02FB07F506FB07F70CFBDF
:1013500006F602FB0CFC16EB074645EB174516EBB1
:101360000C4645EB1C42121951F1000148BF704771
:10137000B619524141EB0101A3F1010370474FEA55
:1013800014454FEA114724EA054621EA074C05FBBC
:1013900007F106FB07F70CFB06F24FF0000605FB12
:1013A0000CFC12EB074241EB174112EB0C4251EBE4
:1013B0001C4148BF7047921841EB0101A3F10103A2
:1013C0007047000070B5044600688168C943C907CA
:1013D00017D1816821F00101816001F027F90546EC
:1013E0000AE000BF01F022F9401B022804D920685E
:1013F0008068C043C00706D020688068C043C0072B
:10140000F0D0002070BDA06A40F01000A062E06A39
:1014100040F00100E062012070BD0000F8B5002638
:101420000446009600688168C943C9072DD08168C9
:1014300041F001018160164816490068B0FBF1F0E7
:1014400000E0401E00900028FBD101F0EFF80546B7
:1014500016E000BF01F0EAF8401B022810D920680E
:101460008068C043C0070BD0A06A40F01000A062A3
:10147000E06A40F00100E06284F824600120F8BDD9
:1014800020688068C043C007E4D10020F8BD000098
:101490007000002040420F00FEE700002DE9F041FF
:1014A000214F05464FF40051384601F0B5F81F4C66
:1014B000002668B9E078401CC0B2E070052807D368
:1014C0002878462801D2401C00E046202870E670AB
:1014D0004FF48041384601F09FF868B9E078401C2D
:1014E000C0B2E070052807D32878142801D9401E1F
:1014F00000E014202870E6702D7860890C4EA84218
:1015000002D1606BB0420DD0304600F0E1FC2946BC
:10151000304600F003FD658130466663BDE8F0416A
:1015200000F0EBBCBDE8F08100100140000000209D
:1015300000FC000810B50022012100F087F8BDE88A
:101540001040052000F096BE10B5044602982160B8
:1015500022716371A0712820A0720620E0710C2016
:101560002072142060720820E072322000F082FEA7
:1015700000223321204600F069F800223321204662
:1015800000F064F8052000F075FE002232212046AC
:1015900000F05CF8052000F06DFE002220212046BE
:1015A00000F054F8052000F065FEE17900222046A5
:1015B00000F04CF8217A0022204600F047F8617ACA
:1015C0000022204600F042F8A17A0022204600F0D6
:1015D0003DF800220121204600F038F82046002284
:1015E000BDE81040022100F031B830B44479002346
:1015F0008C4201D8641EE1B28479944201D8641E01
:10160000E2B232B1012A06D0022A06D0032A06D05D
:1016100007E00B4605E0403102E0143100E05431B0
:10162000CBB230BC43F08001002200F00FB80122A1
:1016300000F00CB870B50C46054603E02846641C63
:10164000FFF7F5FF21780029F8D170BD7CB506467B
:101650000807040EF07A01F0F00518B145F008050E
:1016600044F00804012A01D02AB108E045F0010540
:1016700044F0010403E025F0010524F0010445F0E5
:1016800004008DF80400012000F0F4FD8DF80550F1
:1016900044F004008DF80600012000F0EBFD4FF44B
:1016A0007A708DF8074000903179042301AA3068E0
:1016B00001F086F87CBD01F063BD10B5036800221F
:1016C0005A624FF47A7303E00268546A9C42FCD376
:1016D000491E89B2F8D210BD036800225A62006820
:1016E000426A8A42FCD370470068FFF7E6BF006891
:1016F000FFF7F2BF30B482608380016030BC0846DF
:10170000FFF7D9BF2DE9F0410746002500F057F853
:1017100000240126384600F061F80021384600F028
:10172000C0F80A213846FFF7E2FF384600F047F8D4
:10173000384600F00FF818B106FA04F02843C5B295
:1017400032213846FFF7D3FF641C082CE2DB284621
:10175000BDE8F0818188806800F05EBF70B5044606
:1017600000F04DF801212046FFF7BEFFCC212046B6
:1017700000F066F84421204600F062F8C8212046B7
:10178000FFF7B2FF204600F03AF801212046FFF7AC
:10179000ABFFCC21204600F053F8BE21204600F0DC
:1017A0004FF82046FFF7AEFF05462046FFF7AAFF99
:1017B00045EA0020000902F0C3FEE06070BD1FB5DD
:1017C00000210091019102910391818800910121F2
:1017D00002918068694600F02FFE1FBD1FB50021F1
:1017E0000091019102910391818800910121019161
:1017F000022103918068694600F01EFE1FBD70B58E
:1018000005460024FFF7EAFF0021284600F049F8CA
:101810004FF4F0712846FFF76AFF2846FFF7CFFF25
:1018200050212846FFF763FF2846FFF793FF00B9D2
:1018300001244FF4C8712846FFF759FF204670BDB8
:101840002DE9F0410E460746FFF7C8FF00240125A9
:1018500005FA04F03042384611D0FFF7BFFF0021EF
:10186000384600F01EF80A213846FFF740FF384698
:10187000FFF7A5FF32213846FFF739FF0CE0FFF7ED
:10188000ADFF0021384600F00CF832213846FFF752
:101890002EFF3846FFF793FF641C082CD8DBBDE809
:1018A000F08183880A468068194600F0BABE704706
:1018B00010B502780446632A30D831A13148FEF7CA
:1018C000A7FC012200213048FFF78FFE2FA12E48F0
:1018D000FFF7B0FE012203212B48FFF786FE2949BE
:1018E0002948FFF7A7FE012205212748FFF77DFEC3
:1018F000DF212548FFF79BFE012206212248FFF742
:1019000074FE43212048FFF792FE012207211E4862
:10191000FFF76BFE20211C48FFF789FE2278642A1E
:101920002DD317A11748FEF773FC0122002116489A
:10193000FFF75BFE15A11448FFF77CFE202112483B
:10194000FFF775FE012203210F48FFF74EFE0D49F8
:101950000D48FFF76FFE012206210B48FFF745FEF9
:10196000DF210948FFF763FE012207210648FFF740
:101970003CFEBDE8104043210348FFF758BE10BDB0
:10198000256400000F000020B400002053543A00EA
:1019900010B5044600683549884234DC02F020FC6A
:1019A00002460B4632A13448FEF732FC00221146B3
:1019B0003248FFF71AFE32A13048FFF73BFE002203
:1019C00002212E48FFF711FE2B492C48FFF732FE6B
:1019D000002204212948FFF708FEDF212748FFF7EE
:1019E00026FE002205212548FFF7FFFD432123485D
:1019F000FFF71DFE002206212048FFF7F6FD2021FB
:101A00001E48FFF714FE1F49206888422DDB02F0B4
:101A1000E7FB02460B4616A11748FEF7F9FB00222A
:101A200011461648FFF7E1FD15A11448FFF702FE25
:101A3000002202211148FFF7D8FD0F490F48FFF798
:101A4000F9FD002205210D48FFF7CFFDDF210B48EE
:101A5000FFF7EDFD002206210848FFF7C6FDBDE8AF
:101A6000104043210548FFF7E2BD10BD0000C6420B
:101A700025302E30660000000C000020B40000204D
:101A8000543A00000000C84210B5806802F0A8FB7C
:101A900002460B4613A11548FEF7BAFB1348002275
:101AA00011460C38FFF7A1FD104811A10C38FFF7C3
:101AB000C1FD0E48012200210C38FFF796FD0B49AD
:101AC000A1F10C00FFF7B6FD0848012207210C38F0
:101AD000FFF78BFD05482021BDE810400C38FFF7CB
:101AE000A6BD0000252E356600000000C0000020C5
:101AF00043616920446174204B69000070B504465D
:101B0000006802F0FDFC81B24FF47A75A94216D349
:101B100082B264A16448FEF77BFB0022082163487F
:101B2000FFF763FD62A16148FFF784FD00220C21ED
:101B30005E48FFF75AFD5C495C48FFF77BFD206873
:101B400002F0DEFC81B2A9421FD282B255A15648F2
:101B5000FEF75EFB002208215448FFF746FD54A122
:101B60005248FFF767FD00220C215048FFF73DFD6A
:101B70004D494E48FFF75EFD00220F214B48FFF70D
:101B800034FD20214948FFF752FD206802F0B8FCDF
:101B900081B2632928D882B242A14348FEF738FBBC
:101BA000002208214148FFF720FD41A13F48FFF7EF
:101BB00041FD00220C213D48FFF717FD3A493B4803
:101BC000FFF738FD00220E213848FFF70EFD2021D7
:101BD0003648FFF72CFD00220F213448FFF705FDA2
:101BE00020213248FFF723FD206802F089FC81B2F2
:101BF000092931D882B22BA12B48FEF709FB00221C
:101C000008212A48FFF7F1FC29A12848FFF712FD17
:101C100000220C212548FFF7E8FC23492348FFF761
:101C200009FD00220D212148FFF7DFFC20211F487C
:101C3000FFF7FDFC00220E211C48FFF7D6FC2021F7
:101C40001A48FFF7F4FC00220F211848FFF7CDFCDB
:101C500020211648FFF7EBFC2068174902F05AFBD9
:101C6000164902F081FC02F0BBFA02460E480B4610
:101C700013A14930FEF7CCFA012208210B48FFF7E7
:101C8000B4FC11A10948FFF7D5FC01220A2107483D
:101C9000FFF7ABFCBDE87040034904484931FFF74A
:101CA000C9BC00002564000012000020B400002020
:101CB0005049443A000000000000254300005C4306
:101CC000252E326600000000563A000010B502785A
:101CD0000446632A30D82FA12F48FEF799FA002234
:101CE00011462E48FFF781FC2DA12C48FFF7A2FCDE
:101CF000012200212948FFF778FC27492748FFF7F0
:101D000099FC002202212548FFF76FFCDF212348C0
:101D1000FFF78DFC002203212048FFF766FC4321DA
:101D20001E48FFF784FC002204211C48FFF75DFCDD
:101D300020211A48FFF77BFC2278642A29D315A1B9
:101D40001548FEF765FA002211461448FFF74DFCCE
:101D500013A11248FFF76EFC002211460F48FFF74F
:101D600044FC0D490D48FFF765FC002203210B4898
:101D7000FFF73BFCDF210948FFF759FC0022042153
:101D80000648FFF732FCBDE8104043210348FFF747
:101D90004EBC10BD256400000C000020B4000020E3
:101DA00043616920446174204E6869657420446F02
:101DB00000000000202000F033BB00000649002096
:101DC000C8610648016941F004010161016941F0FF
:101DD0004001016170470000E8010020002002403E
:101DE000064A0021D16106490A6942F002020A61ED
:101DF0004861086940F0400008617047E801002030
:101E000000200240044B0022DA61044A136943F0C7
:101E10000103136101807047E801002000200240A7
:101E200014480022C168CB06134904D5CA6942F0A0
:101E30000202CA611022C3685B0705D5CB6943F073
:101E40000103CB6142F00402C369DB0707D0CB6911
:101E500043F00403CB61C16921F00101C161A2F526
:101E60008071013901D0C2607047C16921F0010160
:101E7000C161704700200240E801002070B50546AE
:101E800000F0D4FB0646114C09E0681C07D025B1D0
:101E900000F0CCFB801BA84201D9032070BDE06894
:101EA000C007F2D1E068800601D52020E060E0683C
:101EB000C00605D4E069C00702D1E068400703D539
:101EC000FFF7AEFF012070BD002070BD0020024072
:101ED00010B586B0044600F07DFA0120CDE902403D
:101EE00001900020009004A9684600F0D5F900F0A8
:101EF00027FA06B010BD006870470088704770B5BB
:101F00000C46054600F066FA2246002329460220C8
:101F100000F020FABDE8704000F012BA70B50C462F
:101F2000054600F057FA2246E3172946012000F043
:101F300011FABDE8704000F003BA0000F8B50024C3
:101F4000009490F824202546012A12D0012280F81E
:101F500024204A681F23072A0DD20668776B521E79
:101F600002EB820293409F430B6893401F437763C9
:101F700019E00220F8BD06680D2A0AD2376BD21F7D
:101F800002EB820293409F430B6893401F433763E9
:101F900009E0F76A0D3A02EB820293409F430B6817
:101FA00093401F43F7620A68072306680A2A0AD388
:101FB000F7680A3A02EB420293409F438B689340D2
:101FC0001F43F76008E0376902EB420293409F43EA
:101FD0008B6893401F4337610A68102A01D0112A89
:101FE00020D1124B02689A4217D193681B0219D470
:101FF000936843F4000393600968102912D10C49D7
:102000000C4A0968B1FBF2F101EB8101490000E0E3
:10201000491E00910029FBD104E0816A41F02001B2
:102020008162012480F824502046F8BD002401403C
:102030007000002040420F000068C06C7047000034
:102040002DE9F0414FF0000704003D467ED0A06A24
:10205000002628B9E66284F82460204600F07EF865
:102060002046FFF7AFF9A16AC90600D420B1A06AE3
:1020700040F01000A06269E0A16A21F4885141F0AB
:102080000201A1626268E169237B0A4347EA4301D6
:102090000A43A1684FF48077B94209D0012907D0DB
:1020A0005FF0000194F814C0BCF1010F02D00AE007
:1020B0003946F7E7F3B1A36A43F02003A362E36A6A
:1020C00043F00103E3622368D3F804C02CF4694CA5
:1020D0004CEA010CC3F804C021688B68DFF870C0BB
:1020E00003EA0C0313438B60A168B9420BD00129AA
:1020F00009D00CE0DFF85CC0A3690CEB43330B4361
:1021000043F40061DFE7218A0D05A5F580152168FC
:10211000CB6A23F470032B43CB62216889680E4B92
:102120001940914208D1E662A16A21F0020141F012
:102130000101A162BDE8F081A06A20F0020040F038
:102140001000A062E06A40F00100E0620120F1E7C7
:10215000FDF7E1FF00E0FFFFFE0E1FFF00B585B0B9
:102160000021009101910291039100680E4988427B
:1021700018D10E48816941F400718161816901F4CF
:1021800000710491816941F00401816180696946AF
:1021900000F0040004900220009003200190044805
:1021A00000F04AF905B000BD0024014000100240D3
:1021B0000008014070B5044690F8240001280DD0B5
:1021C000012084F824002046FFF728F902004FF090
:1021D000000005D084F82400104670BD022070BDB8
:1021E000A16A40F20123994341F48071A1621F4D1D
:1021F00023681F49AB4218D10E6816F4702F14D013
:10220000A66A46F48016A6620E68760505D5A66A0B
:1022100026F4005646F48056A662A66AF6040AD54D
:10222000E66A26F00606E66206E0A66A26F480164E
:10223000A6625E68E9E7E06284F824006FF00200BD
:10224000186020688368C3F34243072B05D1A84276
:1022500008D1096811F4702F04D0816841F480110D
:102260008160B9E7816841F4A001F9E700280140E5
:102270000424014070B5044600F0D8F90546601CFE
:1022800002D004480078044400F0D0F9401BA0427A
:10229000FAD370BD640000202DE9F04705462648BA
:1022A0000F460126017E01290FD0012181460176CA
:1022B0002868DFF888804CF25034022808D0A24603
:1022C0002046FFF7DBFDA8B131E00220BDE8F08732
:1022D0002046FFF7D3FD08BB0120FFF76FFD204626
:1022E000FFF7CCFDD8F81010064621F00401C8F81D
:1022F00010101CE04FF0FF303860AC6811E0204651
:10230000FFF76EFD5046FFF7B9FDD8F81010060034
:1023100021F00201C8F8101001D03C6007E004F57C
:102320008064D5E9020100EB8120A042E7D80021BA
:1023300089F818103046C9E7E80100200020024063
:102340000348016941F080010161002070470000ED
:10235000002002402DE9F05F07461C488846002413
:10236000017E15461E46012909D0012181460176CC
:102370004CF2503A5046FFF781FD18B122E002209E
:10238000BDE8F09F012F02D0022F00D00427D346D2
:10239000DFF83CA0220128463146FDF725FF81B237
:1023A00008EB4400FFF72EFD5846FFF767FDDAF80B
:1023B000102022F00102CAF8102018B9641CE4B2FF
:1023C000BC42E7D3002289F81820D9E7E8010020B1
:1023D00000200240064900200A69120607D5054A76
:1023E0004A60054A4A600969090600D5012070471C
:1023F0000020024023016745AB89EFCD10B52028AE
:1024000009D100220221044800F00BF9BDE8104078
:10241000024800F0DDBE10BD000C0140A00100200C
:10242000044910B50A68024202D00860FFF7E6FFCF
:1024300010BD0000140401402DE9F84FDFF8B891F9
:10244000002409F1040A0AF1040B23460F270BF1BB
:10245000040EC9E00125A5402A40AA427DD1674E5D
:10246000D1F804C0ACEB0608B44532D014DCBCF1A2
:10247000030F3AD009DCBCF1000F2AD0BCF1010FE8
:102480001CD0BCF1020F31D11DE0BCF1110F17D0EF
:10249000BCF1120F2AD119E0B8F5881F19D006DC5B
:1024A000B8F5803F15D0B8F5801F1FD111E0B8F501
:1024B000001F0ED0B8F5041F18D10AE0CB6815E054
:1024C000CB681B1D12E0CB6808330FE0CB680C33E0
:1024D0000CE08B682BB1012B4FF0080303D0456152
:1024E00004E0042302E0056100E00023FF2A01D894
:1024F000064601E000F104064FEA840501D9A5F182
:102500002005D6F8008007FA05FC28EA0C0803FA33
:1025100005F548EA0508C6F800804D68ED0062D56B
:10252000374DAE6946F00106AE61AD6924F0030691
:1025300005F001050095334D06EB050CDCF808505D
:10254000A607360F07FA06F825EA0805DFF8B8806F
:10255000404503D14FF0000817E044E0DFF8AC80BD
:10256000404502D14FF001080FE0DFF8A48040455C
:1025700002D14FF0020808E0DFF89880404502D110
:102580004FF0030801E04FF0040808FA06F848EAA3
:102590000508CCF808804D68D9F80060ED034D4679
:1025A00001D5164300E096432E604D68DAF80060CE
:1025B000AD03554601D5164300E096432E604D68A5
:1025C000DBF80060ED025D4601D5164300E096435E
:1025D0002E604D68DEF80060AD02754601D51643E9
:1025E00000E096432E60641C0D682A46E5407FF4A7
:1025F00031AFBDE8F88F0000000401400000111069
:10260000001002400000014000080140000C0140A1
:1026100000100140001401408068084000D00120F3
:1026200070470AB1016170470904FBE701488068FF
:10263000704700006400002070B5040025D094F8B5
:102640003D00002520B984F83C50204600F04EF9AA
:10265000242084F83D002068016821F00101016018
:102660002068016841F4004101602068016821F49C
:102670000041016000F00CFB4D4A6168914201D8B5
:102680004C4900E04C49884201D2012070BD4B49C1
:102690002368B0FBF1F15E6826F03F060E435E60F2
:1026A0006368934206D94FF4967359434FF47A7393
:1026B000B1FBF3F12368491C1E6A26F03F06314343
:1026C00019626168914210D84900401EB0FBF1F2D6
:1026D000521CC2F30B02042A01D2042022E0B0FBF8
:1026E000F1F0401CC0F30B001CE0A268F2B301EB58
:1026F000C10303EB0116431EB3FBF6F35B1C43F46B
:1027000080431B0549D092B301EBC10202EB0111DA
:10271000401EB0FBF1F0401CC0F30B0040F48040C1
:1027200040F400402168CA694CF6FF739A43104395
:10273000C861D4E9071001432068026822F0C00292
:1027400011430160D4E9030101432068826848F223
:10275000FF339A4311438160D4E90501084321689E
:10276000CA6822F0FF021043C86001E00EE016E0E4
:102770002068016841F0010101602564202084F88F
:102780003D00256384F83E50002070BD01EB4106FA
:10279000431EB3FBF6F35B1CB3E70120C2E701EB7A
:1027A0004101401EB0FBF1F0401CC0F30B00B7E745
:1027B000A086010080841E0000093D0040420F00F9
:1027C0002DE9F84F1F4690468A460446DDF82890CA
:1027D000FFF72CFF054694F83D0020287FD11923F0
:1027E000012240492046009500F01AFF002876D1CA
:1027F00094F83C00012872D0012084F83C00206845
:102800000168C90703D1016841F001010160206836
:10281000016821F400610160212084F83D0010204E
:1028200084F83E0000262664C4F824806785608D05
:1028300020852D48E0622B464A465146204600F04E
:102840007BFE90B9206841698069009036E02A4695
:102850004946204600F063FF50B1206C042804D1A3
:102860002068016841F4007101600120BDE8F88F23
:10287000606A216800780861606A401C6062618D4E
:10288000491E6185218D491E89B2218522685369BF
:10289000DB435B070BD451B100781061606A401CC8
:1028A0006062608D401E6085208D401E20852A4616
:1028B0004946204600F08EFE0028CED1208D00280B
:1028C000C5D154F83D0B016841F40071016020202E
:1028D00004F81E09E67766770020C7E7FFE70220C5
:1028E000C4E70000020010000000FFFF10B586B032
:1028F0000021009101910291039100680F498842E3
:102900001AD10F4CA06940F00800A061A069694687
:1029100000F008000490C0200090122001900320D5
:1029200003900848FFF788FDE06940F40010E0617B
:10293000E06900F40010049006B010BD005400409F
:1029400000100240000C01400248816802781144E6
:102950008160704764000020074810B5016841F0AD
:1029600010010160032000F075F8002000F006F867
:1029700000F024F8002010BD0020024070B50D4D7D
:1029800004464FF47A712878B1FBF0F00A490968DF
:10299000B1FBF0F000F052FB48B9102C07D2002236
:1029A0002146501E00F036F800206C6070BD0120FA
:1029B00070BD000064000020700000200C4808B5C5
:1029C000816941F001018161816901F0010100919A
:1029D000C16941F08051C161C06900F08050009030
:1029E0000448416821F0E06141F00071416008BD98
:1029F0000010024000000140002809DB00F01F0227
:102A0000012191404009800000F1E020C0F8001150
:102A100070470000F0B40E4B1B680C46C3F3022352
:102A2000C3F10705042D00D90425191D072901D27A
:102A3000002300E0DB1E012606FA05F1491E2140B5
:102A400099409E40761E16403143F0BC01F0EABA30
:102A50000CED00E0064900F0070208684FF6FF039E
:102A6000184040EA0220034A104308607047000003
:102A70000CED00E00000FA052DE9F843054600786A
:102A8000354CC00754D0E0690026C00008D4E06986
:102A900040F08050E061E069012600F08050009035
:102AA0002E480168C90512D40168804641F480713E
:102AB0000160FFF7BBFD074605E000BFFFF7B6FD6D
:102AC000C01B642823D8D8F80000C005F6D5206ABA
:102AD00010F4407021D0A98801F4407181421CD0CB
:102AE000206A1F49012220F440700A6000220A6017
:102AF0002062C00711D0FFF799FD074641F28838E0
:102B000008E000BFFFF792FDC11B414502D9032039
:102B1000BDE8F883206A8007F4D5206A696820F44C
:102B20004070084320621EB1E06920F08050E061EF
:102B30002878800705D56068A96820F440400843DC
:102B400060602878C00605D56068E96820F48000D8
:102B5000084360600020DBE7001002400070004086
:102B6000400442422DE9F0470F46050061D0434E34
:102B7000306800F00700B84209D2306820F0070042
:102B800038433060306800F00700B84251D12868FF
:102B90003B4C810712D5400703D5606840F4E060E4
:102BA00060602878000703D5606840F4605060607A
:102BB0006068A96820F0F000084360602878C007CA
:102BC00028D06868012810D02168022810D0890711
:102BD00000292EDA616821F0030101436160FFF7EB
:102BE00025FD804641F288390DE021688903EFE731
:102BF0008901EDE7FFF71AFDA0EB0801494502D96D
:102C00000320BDE8F0876068696800F00C00B0EB55
:102C1000810FEFD1306800F00700B8420BD930685F
:102C200020F0070038433060306800F00700B842F9
:102C300001D00120E5E72878400705D56068E968FC
:102C400020F4E060084360602878000706D56068DB
:102C5000296920F4605040EAC100606000F028F863
:102C60006168084AC1F30311515CC8400649086015
:102C700006480068FFF782FE0020C2E700200240FD
:102C800000100240EE47000870000020680000209D
:102C90000448054900684968044AC1F30221515CAF
:102CA000C84070477000002000100240FE47000836
:102CB00012A185B00FC98DE80F0014A0144A006856
:102CC00004905168134801F00C03042B10D0082B1A
:102CD0000ED1C1F38343C9031DF803000AD551681F
:102CE00004AAC1F34041515C0A4A5043B0FBF1F0E1
:102CF00005B0704708494843FAE70000020304059D
:102D0000060708090A0B0C0D0E0F10100102000037
:102D10000010024000127A0000093D002DE9F84F32
:102D2000040070D02078C04DC00749D06868C0F357
:102D30008100012807D06868C0F38100022809D10A
:102D40006868C00306D52868800339D56068002804
:102D5000E7D035E06068B0F5803F0BD010B1B0F53A
:102D6000A02F11D0286820F480302860286820F433
:102D7000802002E0286840F480302860606890B1CC
:102D8000FFF754FC06460AE0286840F480202860DB
:102D9000F0E700BFFFF74AFC801B642873D828685F
:102DA0008003F7D50CE0FFF741FC064605E000BFC5
:102DB000FFF73CFC801B6428F0D828688003F7D418
:102DC00020789A4E80074FF001094FF0000839D55E
:102DD000686810F00C0F07D06868C0F38100022803
:102DE00009D16868C00306D42868800714D5206913
:102DF000012808D110E02069B0B1C6F80090FFF7B3
:102E000015FC074605E00AE1FFF710FCC01B02288D
:102E1000C4D828688007F7D52868616920F0F800D1
:102E200040EAC10028600DE0C6F80080FFF7FEFB15
:102E3000074604E0FFF7FAFBC01B022823D82868E6
:102E40008007F7D4207800072CD57948A169D9B13B
:102E5000C0F80090FFF7EAFB074604E0FFF7E6FB47
:102E6000C01B02280FD8686A8007F7D571484FF455
:102E7000FA510068B0FBF1F0009000BF0098411ECD
:102E80000091FAD20EE080E0C0F80080FFF7CEFBA0
:102E9000074604E0FFF7CAFBC01B022875D8686A22
:102EA0008007F7D42078400760D5E8690027C00084
:102EB00008D4E86940F08050E861E869012700F033
:102EC000805000905C480168C90513D401688346AE
:102ED00041F480710160FFF7A9FB824606E000BF64
:102EE000FFF7A4FBA0EB0A0064284ED8DBF8000033
:102EF000C005F5D5E06801280AD008B1052813D02F
:102F0000286A20F001002862286A20F0040002E00C
:102F1000286A40F001002862E06841F2883B98B1DD
:102F2000FFF784FB82460BE0286A40F00400286229
:102F3000EEE700BFFFF77AFBA0EB0A0159455AD82C
:102F4000286A8007F6D50CE0FFF770FB824605E0A3
:102F5000FFF76CFBA0EB0A0159454CD8286A8007A3
:102F6000F6D41FB1E86920F08050E861E06988B3C9
:102F70006968C1F38101022944D00228C6F8608043
:102F800004D0FFF753FB044638E034E0FFF74EFB74
:102F9000074604E0FFF74AFBC01B02282BD828682D
:102FA0008001F7D4206AB0F5803F05D16868A16838
:102FB00020F4003008436860D4E9080108436968D8
:102FC00021F4741108436860C6F86090FFF72EFB87
:102FD000044606E025E000BFFFF728FB001B02289F
:102FE00009D828688001F7D51BE000BFFFF71EFB5A
:102FF000001B022802D90320BDE8F88F2868800151
:10300000F4D40EE00128F7D06868226A00F4803119
:10301000914204D1616A00F47010884201D001200D
:10302000EAE70020E8E7000000100240000042420A
:1030300080044242700000200070004010B5401E25
:10304000B0F1807F01D3012010BD4FF0E02460611A
:103050000F21601700F0E6FF0020A061072020612B
:10306000002010BD7047704770B590F83C20012AD1
:1030700026D0012480F83C40022280F83D200368DD
:103080005A689D6822F070060A6832435A600D4BF8
:1030900002689A4208D0B2F1804F05D00A4B9A429A
:1030A00002D00A4B9A4204D1496825F080031943A3
:1030B000916080F83D40002180F83C10084670BDCA
:1030C000022070BD002C01400004004000080040B8
:1030D00010B5040003D094F83D0010B107E00120C2
:1030E00010BD002084F83C00204600F01FF80220AC
:1030F00084F83D00211D206800F0DEFE012084F8E8
:10310000460084F83E0084F83F0084F8400084F8CC
:10311000410084F8420084F8430084F8440084F8B5
:10312000450084F83D00002010BD000008B5114A9C
:1031300001681148914208D1C16941F00201C161A1
:10314000C06900F00200009008BD0C4A9142FBD11A
:10315000C16941F00401C161C069002200F00400AE
:10316000009003211E20FFF755FCBDE808401E20FB
:10317000FFF742BC0004004000100240000800407D
:1031800090F83D10012901D001207047022180F8FC
:103190003D1000680B49884208D0B0F1804F05D03F
:1031A0000949884202D00949884204D1816801F066
:1031B0000701062903D0016841F0010101600020E8
:1031C00070470000002C014000040040000800404F
:1031D00090F83D10012901D001207047022180F8AC
:1031E0003D100168CA6842F00102CA6000680B49DC
:1031F000884208D0B0F1804F05D00949884202D0FA
:103200000849884204D1816801F00701062903D0EA
:10321000016841F00101016000207047002C01406D
:1032200000040040000800400168CA6822F0010262
:10323000CA6001680A6A41F211131A4207D10A6A88
:103240009B101A4203D10A6822F001020A60012190
:1032500080F83D100020704770B5044690F83C009F
:10326000012817D0012584F83C50022084F83D0045
:103270002068826822F0770222F47F428260086828
:10328000502830D00DDC20284DD005DC98B3102814
:103290003BD148E0022070BD302844D0402834D1D2
:1032A00039E0602828D0702806D0B0F5805F2CD097
:1032B000B0F5005F29D10AE0CB68D1E9012120688F
:1032C00000F030FE2068816841F0770109E0CB68AA
:1032D000D1E90121206800F025FE2068816841F4D1
:1032E0008041816011E0CA684968206800F02CFEC6
:1032F0005021206807E016E0CA684968206800F09D
:1033000034FE6021206800F017FE84F83D50002054
:1033100084F83C0070BDCA684968206800F014FE5B
:1033200040212068EFE7226801461046EBE770472E
:1033300070B50446006801694FF00005C94389076C
:1033400015D4C168C943890711D4E91E0161012060
:103350002077206880698007204602D0FFF7E7FFCA
:1033600004E000F098F8204600F096F825772068F1
:103370000169C943490717D4C168C943490713D430
:103380006FF004010161022020772068806910F449
:10339000407F204602D0FFF7CAFF04E000F07BF830
:1033A000204600F079F8257720680169C9430907AC
:1033B00016D4C168C943090712D46FF0080101612E
:1033C000042020772068C0698007204602D0FFF7DC
:1033D000AEFF04E000F05FF8204600F05DF82577CE
:1033E00020680169C943C90617D4C168C943C90621
:1033F00013D46FF010010161082020772068C069A4
:1034000010F4407F204602D0FFF791FF04E000F067
:1034100042F8204600F040F8257720680169C9434A
:10342000C90708D1C168C943C90704D1891E016110
:10343000204600F033F820680169C943090609D421
:10344000C168C943090605D46FF0800101612046B7
:10345000FFF708FE20680169C943490609D4C1681D
:10346000C943490605D46FF040010161204600F0D0
:1034700049F820680169C94389060BD4C168C9436A
:10348000890607D46FF0200101612046BDE8704035
:10349000FFF7E9BD70BD70477047000070B5154E6D
:1034A00000683168884223D1134C2089401C85B2C2
:1034B000A6F5967025810168104801F021F901F008
:1034C0001FF881B20E48A94205D1BDE87040012223
:1034D0000221FFF7A6B8A52D0AD100220221FFF78D
:1034E000A0F8002525810348FFF79EFE306845625D
:1034F00070BD0000A0010020000000200000254356
:10350000000C01407047FEE701684A69D24352054A
:103510000FD46FF480624A61002140F8301F2022EE
:1035200042738173026942F0040202610173012057
:103530007047002070470000F8B50446C06A1E4678
:103540000D461746082807D0012805D010F5803F02
:1035500002D0206B122804D12068016841F48071E8
:103560000160134600224FF001112046009600F042
:1035700057F840B120680068C00502D54FF40070CC
:1035800020640320F8BD2069B0F5804F0ED00620DE
:10359000216800EAD51040F0F000086133463A4651
:1035A0000B49204600F070F878B902E005F0FE0003
:1035B00000E0E8B221680861054933463A46891FB0
:1035C000204600F061F80028DCD00120F8BD0000A2
:1035D0000800010070B516460D4604460DE0204671
:1035E000FFF792FF08B1012070BD681C05D0FFF7FE
:1035F0001DF8801BA84207D835B120684069C04338
:103600004007ECD4002070BD002044F8300F20218A
:103610006173A073216941F0200121612073E2E709
:103620002DE9F0471E4690460D460446C1F3074774
:10363000DDF8209008E0701C06D0FEF7F7FFA0EB45
:103640000900B0420FD876B12068012F18D08069E8
:1036500025EA00000004000C14D000214145EAD006
:103660000020BDE8F087002044F8300F202161736E
:10367000A073216941F02001216120730120F0E74E
:103680004069E5E70121E9E72DE9F0479A469146CF
:103690000E46044600254FF02008C1F3074725E0F9
:1036A00020684069C043400514D42068016841F493
:1036B0000071016021686FF480604861256384F8BF
:1036C0003D8084F83E50206C40F00400206484F873
:1036D0003C501FE0B9F1FF3F08D0FEF7A7FFA0EB79
:1036E0000A0149450CD8B9F1000F09D02068012F13
:1036F00013D0806926EA00000004000C0BD0CFE74D
:1037000044F8305F84F80D80A573206940F02000F4
:10371000206125730120BDE8F0874069EAE770B5B4
:1037200016460D4604460DE02046FFF7EDFE08B1B3
:10373000012070BD681C05D0FEF778FF801BA842F1
:1037400007D835B120684069C0430006ECD400209A
:1037500070BD002044F8300F20216173A0732169EF
:1037600041F0200121612073E2E700003EB5002115
:103770000D48009101910B4A029102600124816081
:10378000047301754FF460220461C2614160FEF769
:1037900057FC07200094CDE9014069460248FEF736
:1037A000CDFB3EBD00240140D40000202DE9F043B4
:1037B00085B00024354800940194029403948169F3
:1037C00041F010018161816901F01001049181696A
:1037D00041F020018161816901F02001049181693A
:1037E00041F004018161816901F004010491816962
:1037F00041F0080181618069DFF8948000F00800E1
:103800000490002205214046FEF70BFFDFF884906C
:1038100048F20207002239464846FEF702FF4FF4FD
:10382000604001258DE8310069461B48FEF704FE23
:1038300005200226CDE90005CDE90246694640464D
:10384000FEF7FAFD18208DE8310069464046FEF784
:10385000F3FD202000901148CDE90105694640465E
:10386000FEF7EAFD00970396CDE901546946484604
:10387000FEF7E2FD002205211720FFF7CBF8172005
:10388000FFF7BAF805B0BDE8F08300000010024071
:1038900000080140000C0140001001400000211010
:1038A00010B586B000241248009401940294039449
:1038B00004940E49059401604721C0E901144FF6B4
:1038C000FE71C0E903148461FFF702FC4FF48050DD
:1038D000009069460648FFF7BFFC049404A9044819
:1038E0000594FFF7C1FB06B010BD000000040040C6
:1038F0005801002010B586B00024114800940194AE
:103900000294039404940D49059401602421C0E9B4
:1039100001146321C0E903148461FFF7D9FB4FF45C
:103920008050009069460648FFF796FC049404A96D
:1039300003480594FFF798FB06B010BD000800404F
:10394000A0010020FEE7FEE72DE9F04190460F467A
:103950000446FEF76BFE324D2862696A401AB0F5E4
:103960007A7F5BD301F57A712E486962FDF7F6FE26
:103970000646C8F80000387800F0E2FD314600F055
:10398000BFFE2949206106464FF00008884201DD4C
:10399000C4F818806068314600F0E6FD6061A068F8
:1039A000314600F0E1FDA16900F046FC1F4EA06128
:1039B000B04201DDA66103E01D49884200D9A16142
:1039C000A86AE862FEF732FE00F0BAFDA862E96A72
:1039D00000F096FE174900F09DFC07462863206919
:1039E000216A054600F08CFE394600F093FCE16840
:1039F00000F0BAFDE0610746A169606900F01CFCB7
:103A0000394600F019FC2060B04201DD266004E078
:103A100010F1FF4F01D3C4F800802562BDE8F081AA
:103A200000000020A40000200000A0410000254369
:103A3000000025C300007A44704770472DE9F05F0D
:103A4000DFF890900E4605464FF400479A4693469D
:103A500039464846FEF7E0FD1F4C90B9B846394656
:103A60004F464846FEF7D8FD58B91C48FDF762FDA1
:103A7000A078401CA07041463846FEF7CDFD0028D6
:103A8000F9D0A078012809D0022820D12868002286
:103A9000B0F5000F14DB1248286015E00120B0716A
:103AA000524659462846FFF74FFF5046FDF770FF34
:103AB0005846FDF7FDFE2846BDE8F05FFEF71EB84C
:103AC00010F1FF4F00D32A60B271A2706270BDE89E
:103AD000F09F00000010014000000020B400002012
:103AE000000025432DE9F041284F05464FF40051D1
:103AF0003846FEF791FDDFF89880264C002680B905
:103B0000A079401CC0B2A0710A280AD3E8682249F3
:103B1000884204DA414600F08FFBE86000E0E9608B
:103B2000A6714FF480413846FEF776FD80B9A07942
:103B3000401CC0B2A0710A280AD3E868B0F5000F93
:103B400004DB414600F0DCFDE86000E0EE60A671B9
:103B5000ED68124E2946E06C00F09EFC02D1206C0C
:103B6000B04210D03046FEF7B3F929463046FEF792
:103B7000C6F926643046E564FEF7BDF92946BDE87E
:103B8000F04100F089BCBDE8F08100000010014068
:103B900017B7D138000000200000484300F00008AB
:103BA0002DE9F041284F05464FF400513846FEF705
:103BB00033FDDFF89880264C002680B96079401CE0
:103BC000C0B260710A280AD3A8682249884204DA80
:103BD000414600F031FBA86000E0A96066714FF437
:103BE00080413846FEF718FD80B96079401CC0B2AC
:103BF00060710A280AD3A868B0F5000F04DB4146BB
:103C000000F07EFDA86000E0AE606671AD68124E07
:103C10002946A06C00F040FC02D1E06BB04210D00D
:103C20003046FEF755F929463046FEF768F9E66357
:103C30003046A564FEF75FF92946BDE8F04100F083
:103C40002BBCBDE8F081000000100140ACC5273757
:103C5000000000200000A04000F400082DE9F04121
:103C6000284F05464FF400513846FEF7D5FCDFF8E3
:103C70009880264C002680B92079401CC0B2207163
:103C80000A280AD368682249884204DA414600F0CB
:103C9000D3FA686000E0696026714FF480413846CD
:103CA000FEF7BAFC80B92079401CC0B220710A2806
:103CB0000AD36868B0F5000F04DB414600F020FD30
:103CC000686000E06E6026716D68124E2946606C77
:103CD00000F0E2FB02D1A06BB04210D03046FEF7FC
:103CE000F7F829463046FEF70AF9A66330466564C0
:103CF000FEF701F92946BDE8F04100F0CDBBBDE873
:103D0000F081000000100140CDCCCC3D000000202F
:103D100000007A4400F800082DE9F0418079174648
:103D20000D46002872D13A4E08213046FEF774FC49
:103D3000384C78B93848FDF7FDFB6078032801D28C
:103D4000401C00E00020607008213046FEF764FC53
:103D50000028F9D0607868B101282DD0022833D02E
:103D6000032853D13846FDF7B1FF3846BDE8F0418E
:103D7000FDF794BB686800F033FA024625480B460D
:103D800026A15430FCF744FA002211462248FDF7E0
:103D90002CFC24A12048FDF74DFC012200211E48E7
:103DA000FDF723FC1B491C485431FDF743FC284612
:103DB000BDE8F041FFF752BF2846FDF765FE2846F3
:103DC000BDE8F041FFF7ECBEE86800F009FA0246F2
:103DD00011480B4616A11630FCF71AFA00221146BC
:103DE0000D48FDF702FC14A10B48FDF723FC01224E
:103DF00000210948FDF7F9FB074907481631FDF78F
:103E000019FC2846BDE8F041FFF76CBEBDE8F08123
:103E10000008014000000020B4000020252E32667A
:103E20000000000043616920446174204B70000071
:103E3000252E34660000000043616920446174202F
:103E40004B640000FEF780BD30B593B02821684672
:103E5000FCF7CAFA14210AA8FCF7C6FA00240120CC
:103E60000F9410941194010412948DE8130004909F
:103E70004FF4E010CDE90810022507956846FEF7DB
:103E80004DFF0F20CDE90A056802CDE90C40022163
:103E90000AA80E94FEF766FEA80311900F950FA8CE
:103EA000FEF7EAFD13B030BD704700000148FFF790
:103EB0003FBA0000A0010020F0B50268164B174C75
:103EC000174D4FF08047984205D0B84203D0A0422A
:103ED00001D0A84203D122F070064A6832439842CA
:103EE00005D0B84203D0A04201D0A84203D122F4A9
:103EF0004074CA6822434C6922F080022243026067
:103F00008A68C2620A688262984201D109690163C3
:103F100001214161F0BD0000002C0140000400407F
:103F20000008004010B5846842EA032224F47F446C
:103F30000A432243826010BD826822F070020A4365
:103F400042F007018160704710B5036A046A24F0EB
:103F500001040462846924F0F00444EA021423F0AA
:103F60000A020A438461026210BD10B5036A23F09D
:103F7000100303628369046A23F4704343EA023244
:103F800024F0A00343EA01118261016210BDFEE743
:103F900010B5002211461048FDF727FB0FA10E486F
:103FA000FDF748FB4FF47A742046FEF763F90A48A0
:103FB000FDF7C0FA002211460748FDF716FB0CA1D9
:103FC0000548FDF737FB2046FEF754F9BDE81040E1
:103FD0000148FDF7AFBA0000B4000020444F204173
:103FE0004E20544F54204E47484945500000000091
:103FF0004C4F414444494E472E2E2E00490050EA72
:10400000C12018BF04204A0D18BF40F0010040F243
:10401000FF72B2EB515F08BF40F00200012808BFF9
:10402000052070470907090E002804DB00F1E02095
:1040300080F80014704700F00F0000F1E02080F8D5
:10404000141D704730380A2801D201207047002023
:104050007047000008B5FEF77FFCFFF7F5FEFFF79D
:10406000A5FBFFF71DFC424840494FF48042016028
:104070004049416000218160C0E9031241618161D2
:10408000C1610162FEF7D8FAFFF770FBFFF732FC5F
:1040900037494FF400435431374AA1F1B400FDF7DA
:1040A00029FB04203249009014234E22A1F1500034
:1040B000FDF74AFA2E483038FEF77CF82F48FDF716
:1040C0001CFF2F4C20702F48FDF715FF284D903D09
:1040D00068602D48FDF70FFFA8602C48FDF70BFF27
:1040E000E860FFF755FF2A4EDFF8A890DFF8A8A098
:1040F000DFF8A8B0DFF8A88004F1180504F1500734
:104100002868B04201DB012200E00022012125489D
:10411000FEF787FA16491A4A903901F12400FFF791
:10412000FBFD1349164B6C391833154AA1F12400D5
:104130000097FFF783FC0E483038FDF77DFFE06104
:1041400000F0FEF9494600F00FFA514600F00CFA73
:10415000594600F0DFF82065404501DD012200E00E
:10416000002204210F48FEF75CFAC9E70054004022
:1041700004010020A0860100000C014000FC0008A2
:104180000000002000F8000800F4000800F000081B
:104190000000D841333353400000C84200F07F454F
:1041A0000000C8410008014010B500290AD0087875
:1041B000002807D005487844FCF7F4FC002801D01B
:1041C000002010BD0248784410BD00001607000012
:1041D0000E0700000808A0F500114FEA31017047F2
:1041E00043004FEAD30C4FEA3C0C43401FBF40074B
:1041F0000CF1605113F0FE4F70471CF0006F03D1BB
:1042000000200CF0004170470CF0004343EA50706E
:1042100010B540EACC0000F028FA00BF0000009280
:104220004FEA0001FFF7D6BF4FF000414FF000000A
:10423000A1F500217047000090EA010F48BF81F00E
:10424000004100F16482421A3CBF801A89184FEA8B
:10425000D0524FF07F4C1CEA410FA2EBD15318BF54
:104260009CEA026F00F03B804FF0004C4CEA0020CB
:104270004CEA012121FA03FC10EB0C0C1ED202F1D6
:10428000FF325FEA1C2040EBC25038BF70471CF081
:104290007F0F4FEA400C18BFBCF17F4F38BF70470B
:1042A000C3F12003994008BF20F00100BCF17F4F0B
:1042B00038BF7047A0F1C04000F01DBA4FEA3C0083
:1042C000000A40EBC25028BF1CF0FF0F4FEA400C21
:1042D000E6D018BFBCF17F4F38BF7047EAE79CEAD1
:1042E000026F05D010EA5C0F08BF00F00040704775
:1042F00010B500F0BAF900BF64FBBE3E401058BFD5
:10430000C0F14040491058BFC1F140418142EFF334
:10431000008070474FF47F0C1CEAD0121EBF1CEACD
:10432000D11392EA0C0F93EA0C0F00F0858090EA0B
:10433000010F48BF42F4807240F4000C41F40000C9
:104340002CF07F4120F07F4000B58142A2EB0302B8
:104350000FF2081CACEB504EC0F100009EF800E0DC
:104360004FEA4E0E00FB0EFC38BF49004FEA2C1CF2
:1043700002F5FA020CFB0EF34FEACE1E4FEA112CA7
:104380004FEAC1210EEB635E42EB22420EFB0CFCB6
:104390004FEA1C5300FB03114FEA112C4FEA013185
:1043A0000EFB0CFC4FEADC4C00FB0C11C14228BF99
:1043B00009184CEB03335DF804EB10EB410143EBC0
:1043C000C250B2F57C0F38BF704729D512F0F00FFC
:1043D0001CBF00F1C04000F00040704700818283A4
:1043E0008485868788898B8C8D8E8F919293959604
:1043F00097999A9C9D9FA0A2A3A5A7A8AAACAEB08E
:10440000B2B3B5B7B9BCBEC0C2C5C7C9CCCED1D492
:10441000D7D9DCDFE2E6E9ECF0F3F7FAFE000000C2
:104420004FEA400C0CF1807CBCF17E4F28BF7047F6
:10443000B0F1C04000F05FB990EA010F0CEAD1136F
:1044400048BF42F48072624538BF634507D213F417
:104450007F0F16D080EA010000F00040704710B5D1
:1044600000F003F9097EFC3E00F005B880EA010087
:1044700000F00040704780EA010000F0004000F0CA
:104480003AB912F47F0F04BF0248704780EA010076
:1044900000F031B90000C07F50EA010C00F1138038
:1044A0001CF5000F58BFBCF5000F01D488427047BF
:1044B00007D710F5000F58BF11F5000F15D488422B
:1044C0007047894270471CF5000F04D5BCF5000FFA
:1044D000F7D5814270474FF0807C1CEB400F38BF0E
:1044E0001CEB410F01D28142704710B500F0BDF8BE
:1044F000922449004FF000504FF08051FFF7FEBE6C
:10450000C10DD1F19E0206DB4FEA002343F00043C8
:1045100023FA02F07047004207D54FEA4001B1F19B
:10452000FE4F02D24FF00000704710B500F09DF82A
:1045300049922480002070476FEA200070470000F5
:10454000B0FA80F310FA03F2C3F19D030AD0D90543
:1045500001EB1220530638BF704700F1010008BF7D
:1045600020F00100704700004FF47F0C1CEAD012CD
:104570001EBF1CEAD11392EA0C0F93EA0C0F00F055
:10458000478090EA010F48BF42F480724FF0004C20
:104590004CEA00204CEA012102EB0302A0FB0113CC
:1045A000A2F50002002918BF43F001035B0028BFF9
:1045B0004FEA330342EB22425FEA132C4CEBC2502A
:1045C0002EBFBCEB436FB2F57C0F70474FEA036C14
:1045D000BCF1004F08BF20F00100B2F57C0F38BFDE
:1045E00070470BD582F0FF0212F5803FC8BF7047BD
:1045F00000F1C040D8BF00F00040704700F5000C4B
:104600005FEA4C0C48BF7047B0F1C04000F073B88F
:1046100090EA010F0CEAD11348BF42F48072624560
:1046200038BF634504D280EA010000F000407047C3
:1046300010B500F01AF800BF8900013E00F007B87D
:1046400000F009B85FEA410C5FEA1C6C08D080EA10
:10465000010000F050B85FEA400C5FEA1C6CF6D134
:104660004FF00040A0F5800070470EF1020E2EF0D2
:10467000030E5EF8044B244204D44FEA4102B2F127
:104680007F4F11D84FEA4003B3F17F4F0CD80ED1C2
:104690004FEAD07CB2F17F4F0CEB4C0C0CF1020CCA
:1046A00008BF4CEBD17C04E04FF0080C01E04FEA6E
:1046B000D17C0CEB4C0324FA03F404F00704B4F1AE
:1046C000040C06D20EEB840CBDE810404CF0010C3B
:1046D0006047DFE80CF0070802024FF00040A0F549
:1046E000800010BD0846420018BFD2F1807288BF1A
:1046F00000F0004010BDFF2141EAD050C0057047D6
:1047000090EA010F48BF81F000413FF59CAD421A8D
:1047100004D882F00042A0EB020011444FEAD052CC
:104720004FF07F4C1CEA410FA2EBD15318BF9CEA1B
:10473000026F4AD04FF0004C4CEA00204CEA0121B5
:1047400021FA03FCB0EB0C0C0FD412F0FE0F36D0A4
:104750005FEA4C001DD5001240EBC25038BF7047D5
:104760001CF03F0F18BF70470BE0A2F101025FEA97
:104770001C2040EBC25038BF70471CF07F0F18BFA1
:104780007047C3F12003994014BF401E20F0010080
:10479000704780084FEA122308BF7047B0FA80FCC8
:1047A000A2EB0C02CCF1280C60FA0CF093EA122F69
:1047B00004BF00EBC25070474FEAC3707047130A42
:1047C0005FEADC1008BF7047F6E79CEA026F04D08E
:1047D00010EA5C0F08BF0020704710B5FFF745FFD7
:1047E00040DFF63E81F000407047FBF759BF000004
:1047F0000000000000000102030406070809000091
:104800000000010203040400000800000000000092
:10481000000200010000100002400000000000A0A3
:104820000000000005400000000000C8000000007B
:104830000C4000000000409C0000000019400000F7
:104840000020BCBE0000000034400000BFC91B8E29
:1048500000000004B5400000504BCFD06607E2CF07
:10486000010000006C4100003E8251AADFEEA73437
:1048700001000000D9420000DCB5A0E23A301F97E9
:10488000FFFFFFFFB4450000FD25A0C8E9A3C14F0D
:10489000FFFFFFFFFF3F000000000080000000005E
:1048A000FF3F00000000008000000000E848000812
:1048B0000000002074000000280100085C49000886
:1048C00074000020F4070000440100081C000000F0
:1048D00043000000F8FFFFFF0C0000000E00000086
:1048E0000F0000002E000000140000000000000077
:1048F00000000000000000000000000000000000B8
:1049000000000000000000000000000000000000A7
:104910000000000000000000000000000000000097
:104920000000000000000000000000000000000087
:104930000000000000000000000000000000000077
:104940000000000000000000000000000100000066
:0C49500010000000000000000024F40033
:04000005080000ED02
:00000001FF
